{
  "contractName": "Chain",
  "abi": [
    {
      "constant": true,
      "inputs": [
        {
          "name": "",
          "type": "uint256"
        }
      ],
      "name": "memes",
      "outputs": [
        {
          "name": "text",
          "type": "string"
        },
        {
          "name": "memeID",
          "type": "uint256"
        },
        {
          "name": "username",
          "type": "string"
        }
      ],
      "payable": false,
      "stateMutability": "view",
      "type": "function",
      "signature": "0x388f6064"
    },
    {
      "constant": true,
      "inputs": [],
      "name": "memeTotal",
      "outputs": [
        {
          "name": "",
          "type": "uint256"
        }
      ],
      "payable": false,
      "stateMutability": "view",
      "type": "function",
      "signature": "0xaf582b79"
    },
    {
      "inputs": [],
      "payable": false,
      "stateMutability": "nonpayable",
      "type": "constructor",
      "signature": "constructor"
    },
    {
      "anonymous": false,
      "inputs": [
        {
          "indexed": false,
          "name": "text",
          "type": "string"
        },
        {
          "indexed": false,
          "name": "id",
          "type": "uint256"
        },
        {
          "indexed": false,
          "name": "username",
          "type": "string"
        }
      ],
      "name": "MemeCreated",
      "type": "event",
      "signature": "0x92aa8aa1c0d6a3623086fbe1ac832a9894d43c342d89f4522df70cce942daebb"
    },
    {
      "constant": false,
      "inputs": [
        {
          "name": "_text",
          "type": "string"
        },
        {
          "name": "_id",
          "type": "uint256"
        },
        {
          "name": "_username",
          "type": "string"
        }
      ],
      "name": "createMeme",
      "outputs": [],
      "payable": false,
      "stateMutability": "nonpayable",
      "type": "function",
      "signature": "0x6e4fe782"
    }
  ],
  "bytecode": "0x60806040526000805534801561001457600080fd5b506100c1606060405190810160405280602c81526020017f5768656e20796f75206465706c6f792061206d656d65206d616368696e65206f81526020017f6e20626c6f636b636861696e000000000000000000000000000000000000000081525060006040805190810160405280600c81526020017f6e6963686f6c617377616e6700000000000000000000000000000000000000008152506100c6640100000000026401000000009004565b6102da565b600080546001908101808355604080516060810182528781526020808201889052818301879052928552928252909220815180519293919261010b928492019061023f565b5060208281015160018301556040830151805161012e926002850192019061023f565b509050507f92aa8aa1c0d6a3623086fbe1ac832a9894d43c342d89f4522df70cce942daebb838383604051808060200184815260200180602001838103835286818151815260200191508051906020019080838360005b8381101561019d578181015183820152602001610185565b50505050905090810190601f1680156101ca5780820380516001836020036101000a031916815260200191505b50838103825284518152845160209182019186019080838360005b838110156101fd5781810151838201526020016101e5565b50505050905090810190601f16801561022a5780820380516001836020036101000a031916815260200191505b509550505050505060405180910390a1505050565b828054600181600116156101000203166002900490600052602060002090601f016020900481019282601f1061028057805160ff19168380011785556102ad565b828001600101855582156102ad579182015b828111156102ad578251825591602001919060010190610292565b506102b99291506102bd565b5090565b6102d791905b808211156102b957600081556001016102c3565b90565b61065b806102e96000396000f3fe6080604052600436106100565763ffffffff7c0100000000000000000000000000000000000000000000000000000000600035041663388f6064811461005b5780636e4fe7821461016a578063af582b79146102ae575b600080fd5b34801561006757600080fd5b506100856004803603602081101561007e57600080fd5b50356102d5565b604051808060200184815260200180602001838103835286818151815260200191508051906020019080838360005b838110156100cc5781810151838201526020016100b4565b50505050905090810190601f1680156100f95780820380516001836020036101000a031916815260200191505b50838103825284518152845160209182019186019080838360005b8381101561012c578181015183820152602001610114565b50505050905090810190601f1680156101595780820380516001836020036101000a031916815260200191505b509550505050505060405180910390f35b34801561017657600080fd5b506102ac6004803603606081101561018d57600080fd5b8101906020810181356401000000008111156101a857600080fd5b8201836020820111156101ba57600080fd5b803590602001918460018302840111640100000000831117156101dc57600080fd5b91908080601f0160208091040260200160405190810160405280939291908181526020018383808284376000920191909152509295843595909490935060408101925060200135905064010000000081111561023757600080fd5b82018360208201111561024957600080fd5b8035906020019184600183028401116401000000008311171561026b57600080fd5b91908080601f016020809104026020016040519081016040528093929190818152602001838380828437600092019190915250929550610415945050505050565b005b3480156102ba57600080fd5b506102c361058e565b60408051918252519081900360200190f35b60016020818152600092835260409283902080548451600294821615610100026000190190911693909304601f81018390048302840183019094528383529283918301828280156103675780601f1061033c57610100808354040283529160200191610367565b820191906000526020600020905b81548152906001019060200180831161034a57829003601f168201915b505050505090806001015490806002018054600181600116156101000203166002900480601f01602080910402602001604051908101604052809291908181526020018280546001816001161561010002031660029004801561040b5780601f106103e05761010080835404028352916020019161040b565b820191906000526020600020905b8154815290600101906020018083116103ee57829003601f168201915b5050505050905083565b600080546001908101808355604080516060810182528781526020808201889052818301879052928552928252909220815180519293919261045a9284920190610594565b5060208281015160018301556040830151805161047d9260028501920190610594565b509050507f92aa8aa1c0d6a3623086fbe1ac832a9894d43c342d89f4522df70cce942daebb838383604051808060200184815260200180602001838103835286818151815260200191508051906020019080838360005b838110156104ec5781810151838201526020016104d4565b50505050905090810190601f1680156105195780820380516001836020036101000a031916815260200191505b50838103825284518152845160209182019186019080838360005b8381101561054c578181015183820152602001610534565b50505050905090810190601f1680156105795780820380516001836020036101000a031916815260200191505b509550505050505060405180910390a1505050565b60005481565b828054600181600116156101000203166002900490600052602060002090601f016020900481019282601f106105d557805160ff1916838001178555610602565b82800160010185558215610602579182015b828111156106025782518255916020019190600101906105e7565b5061060e929150610612565b5090565b61062c91905b8082111561060e5760008155600101610618565b9056fea165627a7a7230582077e9ebd3c5be5c196a42e1476c4adf53b6a09f287c6dfae57c7d1d291c983c820029",
  "source": "pragma solidity ^0.5.0;\n\ncontract Chain {\n\n  uint public memeTotal = 0;\n  mapping(uint => Meme) public memes;\n\n  struct Meme {\n    string text;\n    uint memeID;\n    string username;\n  }\n\n  event MemeCreated(\n    string text,\n    uint id,\n    string username\n  );\n\n  constructor() public {\n    createMeme(\"When you deploy a meme machine on blockchain\", 0, \"nicholaswang\");\n  }\n\n  // creates a new Meme with text and id\n  function createMeme(string memory _text, uint _id, string memory _username) public {\n    memeTotal++;\n    memes[memeTotal] = Meme(_text, _id, _username);\n    emit MemeCreated(_text, _id, _username);\n  }\n\n}\n",
  "sourcePath": "/Users/titlerthenarge/Documents/4chain/contracts/Chain.sol",
  "compiler": {
    "name": "solc",
    "version": "0.5.0+commit.1d4f565a.Emscripten.clang"
  },
  "schemaVersion": "3.0.1",
  "updatedAt": "2020-01-20T00:28:50.989Z",
  "devdoc": {
    "methods": {}
  },
  "userdoc": {
    "methods": {}
  }
}