{
  "contractName": "Chain",
  "abi": [
    {
      "constant": true,
      "inputs": [
        {
          "name": "",
          "type": "uint256"
        }
      ],
      "name": "memes",
      "outputs": [
        {
          "name": "text",
          "type": "string"
        },
        {
          "name": "memeID",
          "type": "uint256"
        },
        {
          "name": "username",
          "type": "string"
        },
        {
          "name": "timestamp",
          "type": "string"
        }
      ],
      "payable": false,
      "stateMutability": "view",
      "type": "function",
      "signature": "0x388f6064"
    },
    {
      "constant": true,
      "inputs": [],
      "name": "memeTotal",
      "outputs": [
        {
          "name": "",
          "type": "uint256"
        }
      ],
      "payable": false,
      "stateMutability": "view",
      "type": "function",
      "signature": "0xaf582b79"
    },
    {
      "inputs": [],
      "payable": false,
      "stateMutability": "nonpayable",
      "type": "constructor",
      "signature": "constructor"
    },
    {
      "anonymous": false,
      "inputs": [
        {
          "indexed": false,
          "name": "text",
          "type": "string"
        },
        {
          "indexed": false,
          "name": "id",
          "type": "uint256"
        },
        {
          "indexed": false,
          "name": "username",
          "type": "string"
        },
        {
          "indexed": false,
          "name": "timestamp",
          "type": "string"
        }
      ],
      "name": "MemeCreated",
      "type": "event",
      "signature": "0x84c86c42a55af1a341280c58031b363c9cac3c7c90f911a5ac9f81ae185b927b"
    },
    {
      "constant": false,
      "inputs": [
        {
          "name": "_text",
          "type": "string"
        },
        {
          "name": "_id",
          "type": "uint256"
        },
        {
          "name": "_username",
          "type": "string"
        },
        {
          "name": "_timestamp",
          "type": "string"
        }
      ],
      "name": "createMeme",
      "outputs": [],
      "payable": false,
      "stateMutability": "nonpayable",
      "type": "function",
      "signature": "0x63655c63"
    }
  ],
  "bytecode": "0x60806040526000805534801561001457600080fd5b5061011e606060405190810160405280602c81526020017f5768656e20796f75206465706c6f792061206d656d65206d616368696e65206f81526020017f6e20626c6f636b636861696e00000000000000000000000000000000000000008152506000606060405190810160405280602a81526020017f307831634461326336313932374239443133323538413738306437343145653381526020017f33376264333836393864000000000000000000000000000000000000000000008152506040805190810160405280600681526020017f4d6f6e6461790000000000000000000000000000000000000000000000000000815250610123640100000000026401000000009004565b6103c2565b60008054600190810180835560408051608081018252888152602080820189905281830188905260608201879052928552928252909220815180519293919261016f9284920190610327565b506020828101516001830155604083015180516101929260028501920190610327565b50606082015180516101ae916003840191602090910190610327565b509050507f84c86c42a55af1a341280c58031b363c9cac3c7c90f911a5ac9f81ae185b927b8484848460405180806020018581526020018060200180602001848103845288818151815260200191508051906020019080838360005b8381101561022257818101518382015260200161020a565b50505050905090810190601f16801561024f5780820380516001836020036101000a031916815260200191505b50848103835286518152865160209182019188019080838360005b8381101561028257818101518382015260200161026a565b50505050905090810190601f1680156102af5780820380516001836020036101000a031916815260200191505b50848103825285518152855160209182019187019080838360005b838110156102e25781810151838201526020016102ca565b50505050905090810190601f16801561030f5780820380516001836020036101000a031916815260200191505b5097505050505050505060405180910390a150505050565b828054600181600116156101000203166002900490600052602060002090601f016020900481019282601f1061036857805160ff1916838001178555610395565b82800160010185558215610395579182015b8281111561039557825182559160200191906001019061037a565b506103a19291506103a5565b5090565b6103bf91905b808211156103a157600081556001016103ab565b90565b61086380620003d26000396000f3fe6080604052600436106100565763ffffffff7c0100000000000000000000000000000000000000000000000000000000600035041663388f6064811461005b57806363655c63146101d0578063af582b791461039b575b600080fd5b34801561006757600080fd5b506100856004803603602081101561007e57600080fd5b50356103c2565b60405180806020018581526020018060200180602001848103845288818151815260200191508051906020019080838360005b838110156100d05781810151838201526020016100b8565b50505050905090810190601f1680156100fd5780820380516001836020036101000a031916815260200191505b50848103835286518152865160209182019188019080838360005b83811015610130578181015183820152602001610118565b50505050905090810190601f16801561015d5780820380516001836020036101000a031916815260200191505b50848103825285518152855160209182019187019080838360005b83811015610190578181015183820152602001610178565b50505050905090810190601f1680156101bd5780820380516001836020036101000a031916815260200191505b5097505050505050505060405180910390f35b3480156101dc57600080fd5b50610399600480360360808110156101f357600080fd5b81019060208101813564010000000081111561020e57600080fd5b82018360208201111561022057600080fd5b8035906020019184600183028401116401000000008311171561024257600080fd5b91908080601f0160208091040260200160405190810160405280939291908181526020018383808284376000920191909152509295843595909490935060408101925060200135905064010000000081111561029d57600080fd5b8201836020820111156102af57600080fd5b803590602001918460018302840111640100000000831117156102d157600080fd5b91908080601f016020809104026020016040519081016040528093929190818152602001838380828437600092019190915250929594936020810193503591505064010000000081111561032457600080fd5b82018360208201111561033657600080fd5b8035906020019184600183028401116401000000008311171561035857600080fd5b91908080601f016020809104026020016040519081016040528093929190818152602001838380828437600092019190915250929550610592945050505050565b005b3480156103a757600080fd5b506103b0610796565b60408051918252519081900360200190f35b60016020818152600092835260409283902080548451600294821615610100026000190190911693909304601f81018390048302840183019094528383529283918301828280156104545780601f1061042957610100808354040283529160200191610454565b820191906000526020600020905b81548152906001019060200180831161043757829003601f168201915b505050505090806001015490806002018054600181600116156101000203166002900480601f0160208091040260200160405190810160405280929190818152602001828054600181600116156101000203166002900480156104f85780601f106104cd576101008083540402835291602001916104f8565b820191906000526020600020905b8154815290600101906020018083116104db57829003601f168201915b5050505060038301805460408051602060026001851615610100026000190190941693909304601f81018490048402820184019092528181529495949350908301828280156105885780601f1061055d57610100808354040283529160200191610588565b820191906000526020600020905b81548152906001019060200180831161056b57829003601f168201915b5050505050905084565b6000805460019081018083556040805160808101825288815260208082018990528183018890526060820187905292855292825290922081518051929391926105de928492019061079c565b50602082810151600183015560408301518051610601926002850192019061079c565b506060820151805161061d91600384019160209091019061079c565b509050507f84c86c42a55af1a341280c58031b363c9cac3c7c90f911a5ac9f81ae185b927b8484848460405180806020018581526020018060200180602001848103845288818151815260200191508051906020019080838360005b83811015610691578181015183820152602001610679565b50505050905090810190601f1680156106be5780820380516001836020036101000a031916815260200191505b50848103835286518152865160209182019188019080838360005b838110156106f15781810151838201526020016106d9565b50505050905090810190601f16801561071e5780820380516001836020036101000a031916815260200191505b50848103825285518152855160209182019187019080838360005b83811015610751578181015183820152602001610739565b50505050905090810190601f16801561077e5780820380516001836020036101000a031916815260200191505b5097505050505050505060405180910390a150505050565b60005481565b828054600181600116156101000203166002900490600052602060002090601f016020900481019282601f106107dd57805160ff191683800117855561080a565b8280016001018555821561080a579182015b8281111561080a5782518255916020019190600101906107ef565b5061081692915061081a565b5090565b61083491905b808211156108165760008155600101610820565b9056fea165627a7a7230582037d4c849a0897aa1957d41723fbd493d2c86c1bc1edb48476891749e673803e50029",
  "source": "pragma solidity ^0.5.0;\n\ncontract Chain {\n\n  uint public memeTotal = 0;\n  mapping(uint => Meme) public memes;\n\n  struct Meme {\n    string text;\n    uint memeID;\n    string username;\n    string timestamp;\n  }\n\n  event MemeCreated(\n    string text,\n    uint id,\n    string username,\n    string timestamp\n  );\n\n  constructor() public {\n    createMeme(\"When you deploy a meme machine on blockchain\", 0, \"0x1cDa2c61927B9D13258A780d741Ee337bd38698d\", \"Monday\");\n  }\n\n  // creates a new Meme with text and id\n  function createMeme(string memory _text, uint _id, string memory _username, string memory _timestamp) public {\n    memeTotal++;\n    memes[memeTotal] = Meme(_text, _id, _username, _timestamp);\n    emit MemeCreated(_text, _id, _username, _timestamp);\n  }\n\n}\n",
  "sourcePath": "/Users/titlerthenarge/Documents/4chain/contracts/Chain.sol",
  "compiler": {
    "name": "solc",
    "version": "0.5.0+commit.1d4f565a.Emscripten.clang"
  },
  "schemaVersion": "3.0.1",
  "updatedAt": "2020-01-20T09:36:50.860Z",
  "devdoc": {
    "methods": {}
  },
  "userdoc": {
    "methods": {}
  }
}